{
  "_format": "hh-sol-artifact-1",
  "contractName": "PropertyRental",
  "sourceName": "contracts/PropertyRental.sol",
  "abi": [
    {
      "inputs": [],
      "stateMutability": "nonpayable",
      "type": "constructor"
    },
    {
      "anonymous": false,
      "inputs": [
        {
          "indexed": true,
          "internalType": "address",
          "name": "to",
          "type": "address"
        },
        {
          "indexed": false,
          "internalType": "uint256",
          "name": "amount",
          "type": "uint256"
        }
      ],
      "name": "EmergencyWithdrawal",
      "type": "event"
    },
    {
      "anonymous": false,
      "inputs": [
        {
          "indexed": false,
          "internalType": "uint16",
          "name": "newFeeBps",
          "type": "uint16"
        }
      ],
      "name": "PlatformFeeUpdated",
      "type": "event"
    },
    {
      "anonymous": false,
      "inputs": [
        {
          "indexed": true,
          "internalType": "address",
          "name": "to",
          "type": "address"
        },
        {
          "indexed": false,
          "internalType": "uint256",
          "name": "amount",
          "type": "uint256"
        }
      ],
      "name": "PlatformFeesWithdrawn",
      "type": "event"
    },
    {
      "anonymous": false,
      "inputs": [
        {
          "indexed": true,
          "internalType": "uint256",
          "name": "propertyId",
          "type": "uint256"
        },
        {
          "indexed": false,
          "internalType": "bool",
          "name": "isAvailable",
          "type": "bool"
        }
      ],
      "name": "PropertyAvailabilityUpdated",
      "type": "event"
    },
    {
      "anonymous": false,
      "inputs": [
        {
          "indexed": true,
          "internalType": "uint256",
          "name": "propertyId",
          "type": "uint256"
        },
        {
          "indexed": true,
          "internalType": "address",
          "name": "owner",
          "type": "address"
        },
        {
          "indexed": false,
          "internalType": "string",
          "name": "title",
          "type": "string"
        },
        {
          "indexed": false,
          "internalType": "uint256",
          "name": "pricePerNight",
          "type": "uint256"
        }
      ],
      "name": "PropertyCreated",
      "type": "event"
    },
    {
      "anonymous": false,
      "inputs": [
        {
          "indexed": true,
          "internalType": "uint256",
          "name": "propertyId",
          "type": "uint256"
        },
        {
          "indexed": false,
          "internalType": "uint256",
          "name": "pricePerNight",
          "type": "uint256"
        }
      ],
      "name": "PropertyPriceUpdated",
      "type": "event"
    },
    {
      "anonymous": false,
      "inputs": [
        {
          "indexed": true,
          "internalType": "uint256",
          "name": "rentalId",
          "type": "uint256"
        },
        {
          "indexed": true,
          "internalType": "uint256",
          "name": "propertyId",
          "type": "uint256"
        },
        {
          "indexed": true,
          "internalType": "address",
          "name": "tenant",
          "type": "address"
        },
        {
          "indexed": false,
          "internalType": "uint64",
          "name": "startDate",
          "type": "uint64"
        },
        {
          "indexed": false,
          "internalType": "uint64",
          "name": "endDate",
          "type": "uint64"
        },
        {
          "indexed": false,
          "internalType": "uint256",
          "name": "totalAmount",
          "type": "uint256"
        },
        {
          "indexed": false,
          "internalType": "uint256",
          "name": "platformFee",
          "type": "uint256"
        }
      ],
      "name": "PropertyRented",
      "type": "event"
    },
    {
      "stateMutability": "payable",
      "type": "fallback"
    },
    {
      "inputs": [],
      "name": "MAX_PLATFORM_FEE_BPS",
      "outputs": [
        {
          "internalType": "uint16",
          "name": "",
          "type": "uint16"
        }
      ],
      "stateMutability": "view",
      "type": "function"
    },
    {
      "inputs": [],
      "name": "contractOwner",
      "outputs": [
        {
          "internalType": "address",
          "name": "",
          "type": "address"
        }
      ],
      "stateMutability": "view",
      "type": "function"
    },
    {
      "inputs": [
        {
          "internalType": "string",
          "name": "title",
          "type": "string"
        },
        {
          "internalType": "string",
          "name": "description",
          "type": "string"
        },
        {
          "internalType": "string",
          "name": "location",
          "type": "string"
        },
        {
          "internalType": "uint256",
          "name": "pricePerNight",
          "type": "uint256"
        }
      ],
      "name": "createProperty",
      "outputs": [
        {
          "internalType": "uint256",
          "name": "propertyId",
          "type": "uint256"
        }
      ],
      "stateMutability": "nonpayable",
      "type": "function"
    },
    {
      "inputs": [
        {
          "internalType": "address payable",
          "name": "to",
          "type": "address"
        }
      ],
      "name": "emergencyWithdrawAll",
      "outputs": [],
      "stateMutability": "nonpayable",
      "type": "function"
    },
    {
      "inputs": [],
      "name": "getAllPropertyIds",
      "outputs": [
        {
          "internalType": "uint256[]",
          "name": "",
          "type": "uint256[]"
        }
      ],
      "stateMutability": "view",
      "type": "function"
    },
    {
      "inputs": [
        {
          "internalType": "address",
          "name": "ownerAddr",
          "type": "address"
        }
      ],
      "name": "getPropertiesByOwner",
      "outputs": [
        {
          "components": [
            {
              "internalType": "uint256",
              "name": "id",
              "type": "uint256"
            },
            {
              "internalType": "address payable",
              "name": "owner",
              "type": "address"
            },
            {
              "internalType": "string",
              "name": "title",
              "type": "string"
            },
            {
              "internalType": "string",
              "name": "description",
              "type": "string"
            },
            {
              "internalType": "string",
              "name": "location",
              "type": "string"
            },
            {
              "internalType": "uint256",
              "name": "pricePerNight",
              "type": "uint256"
            },
            {
              "internalType": "bool",
              "name": "isAvailable",
              "type": "bool"
            },
            {
              "internalType": "uint64",
              "name": "createdAt",
              "type": "uint64"
            }
          ],
          "internalType": "struct PropertyRental.Property[]",
          "name": "",
          "type": "tuple[]"
        }
      ],
      "stateMutability": "view",
      "type": "function"
    },
    {
      "inputs": [
        {
          "internalType": "uint256",
          "name": "propertyId",
          "type": "uint256"
        }
      ],
      "name": "getProperty",
      "outputs": [
        {
          "components": [
            {
              "internalType": "uint256",
              "name": "id",
              "type": "uint256"
            },
            {
              "internalType": "address payable",
              "name": "owner",
              "type": "address"
            },
            {
              "internalType": "string",
              "name": "title",
              "type": "string"
            },
            {
              "internalType": "string",
              "name": "description",
              "type": "string"
            },
            {
              "internalType": "string",
              "name": "location",
              "type": "string"
            },
            {
              "internalType": "uint256",
              "name": "pricePerNight",
              "type": "uint256"
            },
            {
              "internalType": "bool",
              "name": "isAvailable",
              "type": "bool"
            },
            {
              "internalType": "uint64",
              "name": "createdAt",
              "type": "uint64"
            }
          ],
          "internalType": "struct PropertyRental.Property",
          "name": "",
          "type": "tuple"
        }
      ],
      "stateMutability": "view",
      "type": "function"
    },
    {
      "inputs": [
        {
          "internalType": "uint256",
          "name": "propertyId",
          "type": "uint256"
        }
      ],
      "name": "getPropertyRentals",
      "outputs": [
        {
          "components": [
            {
              "internalType": "uint256",
              "name": "propertyId",
              "type": "uint256"
            },
            {
              "internalType": "address",
              "name": "tenant",
              "type": "address"
            },
            {
              "internalType": "uint64",
              "name": "startDate",
              "type": "uint64"
            },
            {
              "internalType": "uint64",
              "name": "endDate",
              "type": "uint64"
            },
            {
              "internalType": "uint256",
              "name": "totalAmount",
              "type": "uint256"
            },
            {
              "internalType": "uint256",
              "name": "platformFee",
              "type": "uint256"
            },
            {
              "internalType": "bool",
              "name": "isActive",
              "type": "bool"
            }
          ],
          "internalType": "struct PropertyRental.Rental[]",
          "name": "",
          "type": "tuple[]"
        }
      ],
      "stateMutability": "view",
      "type": "function"
    },
    {
      "inputs": [
        {
          "internalType": "address",
          "name": "tenant",
          "type": "address"
        }
      ],
      "name": "getTenantRentals",
      "outputs": [
        {
          "components": [
            {
              "internalType": "uint256",
              "name": "propertyId",
              "type": "uint256"
            },
            {
              "internalType": "address",
              "name": "tenant",
              "type": "address"
            },
            {
              "internalType": "uint64",
              "name": "startDate",
              "type": "uint64"
            },
            {
              "internalType": "uint64",
              "name": "endDate",
              "type": "uint64"
            },
            {
              "internalType": "uint256",
              "name": "totalAmount",
              "type": "uint256"
            },
            {
              "internalType": "uint256",
              "name": "platformFee",
              "type": "uint256"
            },
            {
              "internalType": "bool",
              "name": "isActive",
              "type": "bool"
            }
          ],
          "internalType": "struct PropertyRental.Rental[]",
          "name": "",
          "type": "tuple[]"
        }
      ],
      "stateMutability": "view",
      "type": "function"
    },
    {
      "inputs": [],
      "name": "listAvailableProperties",
      "outputs": [
        {
          "components": [
            {
              "internalType": "uint256",
              "name": "id",
              "type": "uint256"
            },
            {
              "internalType": "address payable",
              "name": "owner",
              "type": "address"
            },
            {
              "internalType": "string",
              "name": "title",
              "type": "string"
            },
            {
              "internalType": "string",
              "name": "description",
              "type": "string"
            },
            {
              "internalType": "string",
              "name": "location",
              "type": "string"
            },
            {
              "internalType": "uint256",
              "name": "pricePerNight",
              "type": "uint256"
            },
            {
              "internalType": "bool",
              "name": "isAvailable",
              "type": "bool"
            },
            {
              "internalType": "uint64",
              "name": "createdAt",
              "type": "uint64"
            }
          ],
          "internalType": "struct PropertyRental.Property[]",
          "name": "",
          "type": "tuple[]"
        }
      ],
      "stateMutability": "view",
      "type": "function"
    },
    {
      "inputs": [],
      "name": "platformFeeBps",
      "outputs": [
        {
          "internalType": "uint16",
          "name": "",
          "type": "uint16"
        }
      ],
      "stateMutability": "view",
      "type": "function"
    },
    {
      "inputs": [],
      "name": "platformFeesAccrued",
      "outputs": [
        {
          "internalType": "uint256",
          "name": "",
          "type": "uint256"
        }
      ],
      "stateMutability": "view",
      "type": "function"
    },
    {
      "inputs": [
        {
          "internalType": "uint64",
          "name": "startDate",
          "type": "uint64"
        },
        {
          "internalType": "uint64",
          "name": "endDate",
          "type": "uint64"
        }
      ],
      "name": "previewNights",
      "outputs": [
        {
          "internalType": "uint256",
          "name": "",
          "type": "uint256"
        }
      ],
      "stateMutability": "pure",
      "type": "function"
    },
    {
      "inputs": [
        {
          "internalType": "uint256",
          "name": "",
          "type": "uint256"
        }
      ],
      "name": "propertiesById",
      "outputs": [
        {
          "internalType": "uint256",
          "name": "id",
          "type": "uint256"
        },
        {
          "internalType": "address payable",
          "name": "owner",
          "type": "address"
        },
        {
          "internalType": "string",
          "name": "title",
          "type": "string"
        },
        {
          "internalType": "string",
          "name": "description",
          "type": "string"
        },
        {
          "internalType": "string",
          "name": "location",
          "type": "string"
        },
        {
          "internalType": "uint256",
          "name": "pricePerNight",
          "type": "uint256"
        },
        {
          "internalType": "bool",
          "name": "isAvailable",
          "type": "bool"
        },
        {
          "internalType": "uint64",
          "name": "createdAt",
          "type": "uint64"
        }
      ],
      "stateMutability": "view",
      "type": "function"
    },
    {
      "inputs": [
        {
          "internalType": "uint256",
          "name": "propertyId",
          "type": "uint256"
        },
        {
          "internalType": "uint64",
          "name": "startDate",
          "type": "uint64"
        },
        {
          "internalType": "uint64",
          "name": "endDate",
          "type": "uint64"
        }
      ],
      "name": "quoteRental",
      "outputs": [
        {
          "internalType": "uint256",
          "name": "totalAmount",
          "type": "uint256"
        },
        {
          "internalType": "uint256",
          "name": "fee",
          "type": "uint256"
        },
        {
          "internalType": "uint256",
          "name": "payout",
          "type": "uint256"
        }
      ],
      "stateMutability": "view",
      "type": "function"
    },
    {
      "inputs": [
        {
          "internalType": "uint256",
          "name": "propertyId",
          "type": "uint256"
        },
        {
          "internalType": "uint64",
          "name": "startDate",
          "type": "uint64"
        },
        {
          "internalType": "uint64",
          "name": "endDate",
          "type": "uint64"
        }
      ],
      "name": "rentProperty",
      "outputs": [
        {
          "internalType": "uint256",
          "name": "rentalId",
          "type": "uint256"
        }
      ],
      "stateMutability": "payable",
      "type": "function"
    },
    {
      "inputs": [
        {
          "internalType": "uint256",
          "name": "",
          "type": "uint256"
        }
      ],
      "name": "rentalsById",
      "outputs": [
        {
          "internalType": "uint256",
          "name": "propertyId",
          "type": "uint256"
        },
        {
          "internalType": "address",
          "name": "tenant",
          "type": "address"
        },
        {
          "internalType": "uint64",
          "name": "startDate",
          "type": "uint64"
        },
        {
          "internalType": "uint64",
          "name": "endDate",
          "type": "uint64"
        },
        {
          "internalType": "uint256",
          "name": "totalAmount",
          "type": "uint256"
        },
        {
          "internalType": "uint256",
          "name": "platformFee",
          "type": "uint256"
        },
        {
          "internalType": "bool",
          "name": "isActive",
          "type": "bool"
        }
      ],
      "stateMutability": "view",
      "type": "function"
    },
    {
      "inputs": [
        {
          "internalType": "uint16",
          "name": "newFeeBps",
          "type": "uint16"
        }
      ],
      "name": "setPlatformFeeBps",
      "outputs": [],
      "stateMutability": "nonpayable",
      "type": "function"
    },
    {
      "inputs": [
        {
          "internalType": "uint256",
          "name": "propertyId",
          "type": "uint256"
        },
        {
          "internalType": "bool",
          "name": "isAvailable",
          "type": "bool"
        }
      ],
      "name": "setPropertyAvailability",
      "outputs": [],
      "stateMutability": "nonpayable",
      "type": "function"
    },
    {
      "inputs": [
        {
          "internalType": "uint256",
          "name": "propertyId",
          "type": "uint256"
        },
        {
          "internalType": "uint256",
          "name": "newPricePerNight",
          "type": "uint256"
        }
      ],
      "name": "setPropertyPrice",
      "outputs": [],
      "stateMutability": "nonpayable",
      "type": "function"
    },
    {
      "inputs": [
        {
          "internalType": "address payable",
          "name": "to",
          "type": "address"
        },
        {
          "internalType": "uint256",
          "name": "amount",
          "type": "uint256"
        }
      ],
      "name": "withdrawPlatformFees",
      "outputs": [],
      "stateMutability": "nonpayable",
      "type": "function"
    },
    {
      "stateMutability": "payable",
      "type": "receive"
    }
  ],
  "bytecode": "0x60806040526000805461ffff60a01b1916601960a31b179055600180805560025534801561002c57600080fd5b50600080546001600160a01b03191633179055612b778061004e6000396000f3fe6080604052600436106101225760003560e01c80637af9c3c5116100a5578063beb8354c1161006c578063beb8354c146103f1578063bf4a5a5514610411578063ce606ee014610431578063d450c67d14610469578063db8011ef1461047e578063f3fb68541461049e57005b80637af9c3c5146102b057806387c83070146102d05780638d01513c1461038e5780639cebda31146103a45780639fcb2748146103c457005b80634e1495bf116100e95780634e1495bf146102075780634ff69e831461023b57806354ab62691461025d578063646282531461027d5780636b3da70c1461029d57005b80630a94b7cb1461012b57806322163b861461016157806322dcd13e1461018557806332665ffb146101ba5780633bc1f7b3146101e757005b3661012957005b005b34801561013757600080fd5b5061014b61014636600461235b565b6104d9565b6040516101589190612374565b60405180910390f35b34801561016d57600080fd5b5061017760085481565b604051908152602001610158565b34801561019157600080fd5b506000546101a790600160a01b900461ffff1681565b60405161ffff9091168152602001610158565b3480156101c657600080fd5b506101da6101d536600461235b565b610649565b60405161015891906124fe565b3480156101f357600080fd5b50610129610202366004612511565b6108bb565b34801561021357600080fd5b5061022761022236600461235b565b610980565b60405161015898979695949392919061253c565b34801561024757600080fd5b50610250610b70565b60405161015891906125b9565b34801561026957600080fd5b50610129610278366004612615565b610bc8565b34801561028957600080fd5b50610129610298366004612632565b610d5a565b6101776102ab36600461267a565b610f5e565b3480156102bc57600080fd5b506101776102cb3660046126b6565b61145b565b3480156102dc57600080fd5b506103436102eb36600461235b565b600560208190526000918252604090912080546001820154600283015460038401546004850154949095015492946001600160a01b03831694600160a01b9093046001600160401b0390811694921692909160ff1687565b604080519788526001600160a01b0390961660208801526001600160401b0394851695870195909552929091166060850152608084015260a0830152151560c082015260e001610158565b34801561039a57600080fd5b506101a76103e881565b3480156103b057600080fd5b506101776103bf366004612731565b6114ab565b3480156103d057600080fd5b506103e46103df366004612615565b6117bc565b60405161015891906127d3565b3480156103fd57600080fd5b5061012961040c366004612837565b611b3f565b34801561041d57600080fd5b5061012961042c366004612859565b611c5e565b34801561043d57600080fd5b50600054610451906001600160a01b031681565b6040516001600160a01b039091168152602001610158565b34801561047557600080fd5b506103e4611d3b565b34801561048a57600080fd5b5061014b610499366004612615565b612098565b3480156104aa57600080fd5b506104be6104b936600461267a565b612209565b60408051938452602084019290925290820152606001610158565b60008181526007602052604081208054606092816001600160401b038111156105045761050461288e565b60405190808252806020026020018201604052801561056b57816020015b6040805160e08101825260008082526020808301829052928201819052606082018190526080820181905260a0820181905260c082015282526000199092019101816105225790505b50905060005b82811015610640576005600085838154811061058f5761058f6128a4565b600091825260208083209091015483528281019390935260409182019020815160e0810183528154815260018201546001600160a01b038116948201949094526001600160401b03600160a01b9094048416928101929092526002810154909216606082015260038201546080820152600482015460a082015260059091015460ff16151560c0820152825183908390811061062d5761062d6128a4565b6020908102919091010152600101610571565b50949350505050565b610651612302565b60008281526003602052604090206001015482906001600160a01b03166106935760405162461bcd60e51b815260040161068a906128ba565b60405180910390fd5b6000838152600360209081526040918290208251610100810184528154815260018201546001600160a01b03169281019290925260028101805492939192918401916106de906128e6565b80601f016020809104026020016040519081016040528092919081815260200182805461070a906128e6565b80156107575780601f1061072c57610100808354040283529160200191610757565b820191906000526020600020905b81548152906001019060200180831161073a57829003601f168201915b50505050508152602001600382018054610770906128e6565b80601f016020809104026020016040519081016040528092919081815260200182805461079c906128e6565b80156107e95780601f106107be576101008083540402835291602001916107e9565b820191906000526020600020905b8154815290600101906020018083116107cc57829003601f168201915b50505050508152602001600482018054610802906128e6565b80601f016020809104026020016040519081016040528092919081815260200182805461082e906128e6565b801561087b5780601f106108505761010080835404028352916020019161087b565b820191906000526020600020905b81548152906001019060200180831161085e57829003601f168201915b50505091835250506005820154602082015260069091015460ff81161515604083015261010090046001600160401b031660609091015291505b50919050565b6000546001600160a01b031633146108e55760405162461bcd60e51b815260040161068a9061291a565b6103e861ffff8216111561092a5760405162461bcd60e51b815260206004820152600c60248201526b08ccaca40e8dede40d0d2ced60a31b604482015260640161068a565b6000805461ffff60a01b1916600160a01b61ffff8416908102919091179091556040519081527f8043734007c449f33c5ec8cb55f80415b9bed289de65701af55e6be91da1e7a19060200160405180910390a150565b60036020526000908152604090208054600182015460028301805492936001600160a01b03909216926109b2906128e6565b80601f01602080910402602001604051908101604052809291908181526020018280546109de906128e6565b8015610a2b5780601f10610a0057610100808354040283529160200191610a2b565b820191906000526020600020905b815481529060010190602001808311610a0e57829003601f168201915b505050505090806003018054610a40906128e6565b80601f0160208091040260200160405190810160405280929190818152602001828054610a6c906128e6565b8015610ab95780601f10610a8e57610100808354040283529160200191610ab9565b820191906000526020600020905b815481529060010190602001808311610a9c57829003601f168201915b505050505090806004018054610ace906128e6565b80601f0160208091040260200160405190810160405280929190818152602001828054610afa906128e6565b8015610b475780601f10610b1c57610100808354040283529160200191610b47565b820191906000526020600020905b815481529060010190602001808311610b2a57829003601f168201915b50505050600583015460069093015491929160ff8116915061010090046001600160401b031688565b60606004805480602002602001604051908101604052809291908181526020018280548015610bbe57602002820191906000526020600020905b815481526020019060010190808311610baa575b5050505050905090565b6000546001600160a01b03163314610bf25760405162461bcd60e51b815260040161068a9061291a565b60095460ff1615610c155760405162461bcd60e51b815260040161068a90612946565b6009805460ff191660011790556001600160a01b038116610c655760405162461bcd60e51b815260206004820152600a602482015269496e76616c696420746f60b01b604482015260640161068a565b60405147906000906001600160a01b0384169083908381818185875af1925050503d8060008114610cb2576040519150601f19603f3d011682016040523d82523d6000602084013e610cb7565b606091505b5050905080610d085760405162461bcd60e51b815260206004820152601960248201527f456d657267656e6379207769746864726177206661696c656400000000000000604482015260640161068a565b826001600160a01b03167f23d6711a1d031134a36921253c75aa59e967d38e369ac625992824315e204f2083604051610d4391815260200190565b60405180910390a250506009805460ff1916905550565b6000546001600160a01b03163314610d845760405162461bcd60e51b815260040161068a9061291a565b60095460ff1615610da75760405162461bcd60e51b815260040161068a90612946565b6009805460ff191660011790556001600160a01b038216610df75760405162461bcd60e51b815260206004820152600a602482015269496e76616c696420746f60b01b604482015260640161068a565b60008111610e355760405162461bcd60e51b815260206004820152600b60248201526a16995c9bc8185b5bdd5b9d60aa1b604482015260640161068a565b600854811115610e795760405162461bcd60e51b815260206004820152600f60248201526e115e18d959591cc81858d8dc9d5959608a1b604482015260640161068a565b8060086000828254610e8b9190612980565b90915550506040516000906001600160a01b0384169083908381818185875af1925050503d8060008114610edb576040519150601f19603f3d011682016040523d82523d6000602084013e610ee0565b606091505b5050905080610f235760405162461bcd60e51b815260206004820152600f60248201526e15da5d1a191c985dc819985a5b1959608a1b604482015260640161068a565b826001600160a01b03167ffc7ad544ff6a06d6499925723d25b6fe70457a42939995b1d3d6f560fe33633383604051610d4391815260200190565b60095460009060ff1615610f845760405162461bcd60e51b815260040161068a90612946565b6009805460ff191660019081179091556000858152600360205260409020015484906001600160a01b0316610fcb5760405162461bcd60e51b815260040161068a906128ba565b6000858152600360205260409020600681015460ff166110265760405162461bcd60e51b815260206004820152601660248201527550726f7065727479206e6f7420617661696c61626c6560501b604482015260640161068a565b846001600160401b0316846001600160401b0316116110775760405162461bcd60e51b815260206004820152600d60248201526c496e76616c696420646174657360981b604482015260640161068a565b600061108f6001600160401b03808816908716612980565b905060006110a06201518083612993565b9050600081116110e55760405162461bcd60e51b815260206004820152601060248201526f105d081b19585cdd080c481b9a59da1d60821b604482015260640161068a565b60008360050154826110f791906129b5565b905080341461113e5760405162461bcd60e51b8152602060048201526013602482015272496e636f7272656374204554482076616c756560681b604482015260640161068a565b600080546127109061115b90600160a01b900461ffff16846129b5565b6111659190612993565b905060006111738284612980565b600280549192506000611185836129cc565b9190505597506040518060e001604052808c8152602001336001600160a01b031681526020018b6001600160401b031681526020018a6001600160401b0316815260200184815260200183815260200160011515815250600560008a81526020019081526020016000206000820151816000015560208201518160010160006101000a8154816001600160a01b0302191690836001600160a01b0316021790555060408201518160010160146101000a8154816001600160401b0302191690836001600160401b0316021790555060608201518160020160006101000a8154816001600160401b0302191690836001600160401b031602179055506080820151816003015560a0820151816004015560c08201518160050160006101000a81548160ff02191690831515021790555090505060066000336001600160a01b03166001600160a01b03168152602001908152602001600020889080600181540180825580915050600190039060005260206000200160009091909190915055600760008c8152602001908152602001600020889080600181540180825580915050600190039060005260206000200160009091909190915055816008600082825461134f91906129e5565b9091555050604080516001600160401b03808d1682528b1660208201529081018490526060810183905233908c908a907fc29ac7634a97a65743a8f5cd05778e6b98fad5858cb2656a60fbbcede2311eff9060800160405180910390a460018601546040516000916001600160a01b03169083908381818185875af1925050503d80600081146113fb576040519150601f19603f3d011682016040523d82523d6000602084013e611400565b606091505b50509050806114415760405162461bcd60e51b815260206004820152600d60248201526c14185e5bdd5d0819985a5b1959609a1b604482015260640161068a565b50506009805460ff19169055509498975050505050505050565b6000826001600160401b0316826001600160401b03161161147e575060006114a5565b620151806114986001600160401b03808616908516612980565b6114a29190612993565b90505b92915050565b6000866114eb5760405162461bcd60e51b815260206004820152600e60248201526d151a5d1b19481c995c5d5a5c995960921b604482015260640161068a565b8261152c5760405162461bcd60e51b8152602060048201526011602482015270131bd8d85d1a5bdb881c995c5d5a5c9959607a1b604482015260640161068a565b600082116115705760405162461bcd60e51b815260206004820152601160248201527005072696365206d757374206265203e203607c1b604482015260640161068a565b60018054906000611580836129cc565b919050559050604051806101000160405280828152602001336001600160a01b0316815260200189898080601f016020809104026020016040519081016040528093929190818152602001838380828437600092019190915250505090825250604080516020601f8a0181900481028201810190925288815291810191908990899081908401838280828437600092019190915250505090825250604080516020601f8801819004810282018101909252868152918101919087908790819084018382808284376000920182905250938552505050602080830186905260016040808501829052426001600160401b03166060909501949094528583526003825291839020845181559084015191810180546001600160a01b0319166001600160a01b03909316929092179091559082015160028201906116c19082612a49565b50606082015160038201906116d69082612a49565b50608082015160048201906116eb9082612a49565b5060a0820151600582015560c08201516006909101805460e0909301516001600160401b03166101000268ffffffffffffffff00199215159290921668ffffffffffffffffff1990931692909217179055600480546001810182556000919091527f8a35acfbc15ff81a39ae7d344fd709f28e8600b4aa8c65c6b64bfe7fe36bd19b01819055604051339082907fba29aff6226defaed7a3d82c1d901aaf08d90f829cd313ebfedc69c3769f3e84906117a9908c908c908890612b08565b60405180910390a3979650505050505050565b6004546060906000805b8281101561183257846001600160a01b031660036000600484815481106117ef576117ef6128a4565b600091825260208083209091015483528201929092526040019020600101546001600160a01b03160361182a5781611826816129cc565b9250505b6001016117c6565b506000816001600160401b0381111561184d5761184d61288e565b60405190808252806020026020018201604052801561188657816020015b611873612302565b81526020019060019003908161186b5790505b5090506000805b84811015611b34576000600482815481106118aa576118aa6128a4565b600091825260208083209091015480835260039091526040909120600101549091506001600160a01b03808a16911603611b2b576000818152600360209081526040918290208251610100810184528154815260018201546001600160a01b0316928101929092526002810180549293919291840191611929906128e6565b80601f0160208091040260200160405190810160405280929190818152602001828054611955906128e6565b80156119a25780601f10611977576101008083540402835291602001916119a2565b820191906000526020600020905b81548152906001019060200180831161198557829003601f168201915b505050505081526020016003820180546119bb906128e6565b80601f01602080910402602001604051908101604052809291908181526020018280546119e7906128e6565b8015611a345780601f10611a0957610100808354040283529160200191611a34565b820191906000526020600020905b815481529060010190602001808311611a1757829003601f168201915b50505050508152602001600482018054611a4d906128e6565b80601f0160208091040260200160405190810160405280929190818152602001828054611a79906128e6565b8015611ac65780601f10611a9b57610100808354040283529160200191611ac6565b820191906000526020600020905b815481529060010190602001808311611aa957829003601f168201915b50505091835250506005820154602082015260069091015460ff81161515604083015261010090046001600160401b03166060909101528451859085908110611b1157611b116128a4565b60200260200101819052508280611b27906129cc565b9350505b5060010161188d565b509095945050505050565b60008281526003602052604090206001015482906001600160a01b0316611b785760405162461bcd60e51b815260040161068a906128ba565b60008211611bbc5760405162461bcd60e51b815260206004820152601160248201527005072696365206d757374206265203e203607c1b604482015260640161068a565b600083815260036020526040902060018101546001600160a01b03163314611c1b5760405162461bcd60e51b81526020600482015260126024820152712737ba10383937b832b93a3c9037bbb732b960711b604482015260640161068a565b6005810183905560405183815284907ff73705cc3056ac9339b98dc8b7f9612e3851eb98f309b8bdff61cb3b0b34b9b4906020015b60405180910390a250505050565b60008281526003602052604090206001015482906001600160a01b0316611c975760405162461bcd60e51b815260040161068a906128ba565b600083815260036020526040902060018101546001600160a01b03163314611cf65760405162461bcd60e51b81526020600482015260126024820152712737ba10383937b832b93a3c9037bbb732b960711b604482015260640161068a565b60068101805460ff191684151590811790915560405190815284907ff638b9f4d25b46c83266caa2663c4722001b68f1c5c31e5b19f935107398f2e890602001611c50565b600454606090600090815b81811015611da457600060048281548110611d6357611d636128a4565b6000918252602080832090910154808352600390915260409091206006015490915060ff1615611d9b5783611d97816129cc565b9450505b50600101611d46565b506000826001600160401b03811115611dbf57611dbf61288e565b604051908082528060200260200182016040528015611df857816020015b611de5612302565b815260200190600190039081611ddd5790505b5090506000805b8381101561208e57600060048281548110611e1c57611e1c6128a4565b60009182526020808320909101548083526003909152604090912060068101549192509060ff16156120845760408051610100810182528254815260018301546001600160a01b03166020820152600283018054919284929084019190611e82906128e6565b80601f0160208091040260200160405190810160405280929190818152602001828054611eae906128e6565b8015611efb5780601f10611ed057610100808354040283529160200191611efb565b820191906000526020600020905b815481529060010190602001808311611ede57829003601f168201915b50505050508152602001600382018054611f14906128e6565b80601f0160208091040260200160405190810160405280929190818152602001828054611f40906128e6565b8015611f8d5780601f10611f6257610100808354040283529160200191611f8d565b820191906000526020600020905b815481529060010190602001808311611f7057829003601f168201915b50505050508152602001600482018054611fa6906128e6565b80601f0160208091040260200160405190810160405280929190818152602001828054611fd2906128e6565b801561201f5780601f10611ff45761010080835404028352916020019161201f565b820191906000526020600020905b81548152906001019060200180831161200257829003601f168201915b50505091835250506005820154602082015260069091015460ff81161515604083015261010090046001600160401b0316606090910152855186908690811061206a5761206a6128a4565b60200260200101819052508380612080906129cc565b9450505b5050600101611dff565b5090949350505050565b6001600160a01b03811660009081526006602052604081208054606092816001600160401b038111156120cd576120cd61288e565b60405190808252806020026020018201604052801561213457816020015b6040805160e08101825260008082526020808301829052928201819052606082018190526080820181905260a0820181905260c082015282526000199092019101816120eb5790505b50905060005b828110156106405760056000858381548110612158576121586128a4565b600091825260208083209091015483528281019390935260409182019020815160e0810183528154815260018201546001600160a01b038116948201949094526001600160401b03600160a01b9094048416928101929092526002810154909216606082015260038201546080820152600482015460a082015260059091015460ff16151560c082015282518390839081106121f6576121f66128a4565b602090810291909101015260010161213a565b6000838152600360205260408120600101548190819086906001600160a01b03166122465760405162461bcd60e51b815260040161068a906128ba565b6000620151806122626001600160401b03808a16908916612980565b61226c9190612993565b9050866001600160401b0316866001600160401b031611158061228d575080155b156122a3576000806000945094509450506122f8565b6000888152600360205260409020600501546122bf90826129b5565b600054909550612710906122de90600160a01b900461ffff16876129b5565b6122e89190612993565b93506122f48486612980565b9250505b5093509350939050565b6040518061010001604052806000815260200160006001600160a01b031681526020016060815260200160608152602001606081526020016000815260200160001515815260200160006001600160401b031681525090565b60006020828403121561236d57600080fd5b5035919050565b602080825282518282018190526000919060409081850190868401855b8281101561240257815180518552868101516001600160a01b031687860152858101516001600160401b0390811687870152606080830151909116908601526080808201519086015260a0808201519086015260c09081015115159085015260e09093019290850190600101612391565b5091979650505050505050565b6000815180845260005b8181101561243557602081850181015186830182015201612419565b506000602082860101526020601f19601f83011685010191505092915050565b60006101008251845260018060a01b03602084015116602085015260408301518160408601526124878286018261240f565b915050606083015184820360608601526124a1828261240f565b915050608083015184820360808601526124bb828261240f565b91505060a083015160a085015260c08301516124db60c086018215159052565b5060e08301516124f660e08601826001600160401b03169052565b509392505050565b6020815260006114a26020830184612455565b60006020828403121561252357600080fd5b813561ffff8116811461253557600080fd5b9392505050565b8881526001600160a01b0388166020820152610100604082018190526000906125678382018a61240f565b9050828103606084015261257b818961240f565b9050828103608084015261258f818861240f565b60a0840196909652505091151560c08301526001600160401b031660e09091015295945050505050565b6020808252825182820181905260009190848201906040850190845b818110156125f1578351835292840192918401916001016125d5565b50909695505050505050565b6001600160a01b038116811461261257600080fd5b50565b60006020828403121561262757600080fd5b8135612535816125fd565b6000806040838503121561264557600080fd5b8235612650816125fd565b946020939093013593505050565b80356001600160401b038116811461267557600080fd5b919050565b60008060006060848603121561268f57600080fd5b8335925061269f6020850161265e565b91506126ad6040850161265e565b90509250925092565b600080604083850312156126c957600080fd5b6126d28361265e565b91506126e06020840161265e565b90509250929050565b60008083601f8401126126fb57600080fd5b5081356001600160401b0381111561271257600080fd5b60208301915083602082850101111561272a57600080fd5b9250929050565b60008060008060008060006080888a03121561274c57600080fd5b87356001600160401b038082111561276357600080fd5b61276f8b838c016126e9565b909950975060208a013591508082111561278857600080fd5b6127948b838c016126e9565b909750955060408a01359150808211156127ad57600080fd5b506127ba8a828b016126e9565b989b979a50959894979596606090950135949350505050565b600060208083016020845280855180835260408601915060408160051b87010192506020870160005b8281101561282a57603f19888603018452612818858351612455565b945092850192908501906001016127fc565b5092979650505050505050565b6000806040838503121561284a57600080fd5b50508035926020909101359150565b6000806040838503121561286c57600080fd5b823591506020830135801515811461288357600080fd5b809150509250929050565b634e487b7160e01b600052604160045260246000fd5b634e487b7160e01b600052603260045260246000fd5b602080825260129082015271141c9bdc195c9d1e481b9bdd08199bdd5b9960721b604082015260600190565b600181811c908216806128fa57607f821691505b6020821081036108b557634e487b7160e01b600052602260045260246000fd5b6020808252601290820152712737ba1031b7b73a3930b1ba1037bbb732b960711b604082015260600190565b6020808252600a90820152695265656e7472616e637960b01b604082015260600190565b634e487b7160e01b600052601160045260246000fd5b818103818111156114a5576114a561296a565b6000826129b057634e487b7160e01b600052601260045260246000fd5b500490565b80820281158282048414176114a5576114a561296a565b6000600182016129de576129de61296a565b5060010190565b808201808211156114a5576114a561296a565b601f821115612a44576000816000526020600020601f850160051c81016020861015612a215750805b601f850160051c820191505b81811015612a4057828155600101612a2d565b5050505b505050565b81516001600160401b03811115612a6257612a6261288e565b612a7681612a7084546128e6565b846129f8565b602080601f831160018114612aab5760008415612a935750858301515b600019600386901b1c1916600185901b178555612a40565b600085815260208120601f198616915b82811015612ada57888601518255948401946001909101908401612abb565b5085821015612af85787850151600019600388901b60f8161c191681555b5050505050600190811b01905550565b604081528260408201528284606083013760006060848301015260006060601f19601f860116830101905082602083015294935050505056fea26469706673582212205c8d293f2e3dd0e60e05cbab19dff2284ac4cb0b07f6b96e6295a670236df11364736f6c63430008180033",
  "linkReferences": {},
  "deployedLinkReferences": {}
}